{
  "contractName": "NFT",
  "abi": [
    {
      "inputs": [
        {
          "internalType": "string",
          "name": "name",
          "type": "string"
        },
        {
          "internalType": "string",
          "name": "symbol",
          "type": "string"
        }
      ],
      "stateMutability": "nonpayable",
      "type": "constructor"
    },
    {
      "anonymous": false,
      "inputs": [
        {
          "indexed": true,
          "internalType": "address",
          "name": "owner",
          "type": "address"
        },
        {
          "indexed": true,
          "internalType": "address",
          "name": "approved",
          "type": "address"
        },
        {
          "indexed": true,
          "internalType": "uint256",
          "name": "tokenId",
          "type": "uint256"
        }
      ],
      "name": "Approval",
      "type": "event"
    },
    {
      "anonymous": false,
      "inputs": [
        {
          "indexed": true,
          "internalType": "address",
          "name": "owner",
          "type": "address"
        },
        {
          "indexed": true,
          "internalType": "address",
          "name": "operator",
          "type": "address"
        },
        {
          "indexed": false,
          "internalType": "bool",
          "name": "approved",
          "type": "bool"
        }
      ],
      "name": "ApprovalForAll",
      "type": "event"
    },
    {
      "anonymous": false,
      "inputs": [
        {
          "indexed": true,
          "internalType": "address",
          "name": "previousOwner",
          "type": "address"
        },
        {
          "indexed": true,
          "internalType": "address",
          "name": "newOwner",
          "type": "address"
        }
      ],
      "name": "OwnershipTransferred",
      "type": "event"
    },
    {
      "anonymous": false,
      "inputs": [
        {
          "indexed": false,
          "internalType": "address",
          "name": "account",
          "type": "address"
        }
      ],
      "name": "Paused",
      "type": "event"
    },
    {
      "anonymous": false,
      "inputs": [
        {
          "indexed": true,
          "internalType": "address",
          "name": "from",
          "type": "address"
        },
        {
          "indexed": true,
          "internalType": "address",
          "name": "to",
          "type": "address"
        },
        {
          "indexed": true,
          "internalType": "uint256",
          "name": "tokenId",
          "type": "uint256"
        }
      ],
      "name": "Transfer",
      "type": "event"
    },
    {
      "anonymous": false,
      "inputs": [
        {
          "indexed": false,
          "internalType": "address",
          "name": "account",
          "type": "address"
        }
      ],
      "name": "Unpaused",
      "type": "event"
    },
    {
      "inputs": [
        {
          "internalType": "address",
          "name": "to",
          "type": "address"
        },
        {
          "internalType": "uint256",
          "name": "tokenId",
          "type": "uint256"
        }
      ],
      "name": "approve",
      "outputs": [],
      "stateMutability": "nonpayable",
      "type": "function"
    },
    {
      "inputs": [
        {
          "internalType": "address",
          "name": "owner",
          "type": "address"
        }
      ],
      "name": "balanceOf",
      "outputs": [
        {
          "internalType": "uint256",
          "name": "",
          "type": "uint256"
        }
      ],
      "stateMutability": "view",
      "type": "function"
    },
    {
      "inputs": [
        {
          "internalType": "uint256",
          "name": "tokenId",
          "type": "uint256"
        }
      ],
      "name": "getApproved",
      "outputs": [
        {
          "internalType": "address",
          "name": "",
          "type": "address"
        }
      ],
      "stateMutability": "view",
      "type": "function"
    },
    {
      "inputs": [
        {
          "internalType": "address",
          "name": "owner",
          "type": "address"
        },
        {
          "internalType": "address",
          "name": "operator",
          "type": "address"
        }
      ],
      "name": "isApprovedForAll",
      "outputs": [
        {
          "internalType": "bool",
          "name": "",
          "type": "bool"
        }
      ],
      "stateMutability": "view",
      "type": "function"
    },
    {
      "inputs": [],
      "name": "name",
      "outputs": [
        {
          "internalType": "string",
          "name": "",
          "type": "string"
        }
      ],
      "stateMutability": "view",
      "type": "function"
    },
    {
      "inputs": [],
      "name": "owner",
      "outputs": [
        {
          "internalType": "address",
          "name": "",
          "type": "address"
        }
      ],
      "stateMutability": "view",
      "type": "function"
    },
    {
      "inputs": [
        {
          "internalType": "uint256",
          "name": "tokenId",
          "type": "uint256"
        }
      ],
      "name": "ownerOf",
      "outputs": [
        {
          "internalType": "address",
          "name": "",
          "type": "address"
        }
      ],
      "stateMutability": "view",
      "type": "function"
    },
    {
      "inputs": [],
      "name": "paused",
      "outputs": [
        {
          "internalType": "bool",
          "name": "",
          "type": "bool"
        }
      ],
      "stateMutability": "view",
      "type": "function"
    },
    {
      "inputs": [],
      "name": "renounceOwnership",
      "outputs": [],
      "stateMutability": "nonpayable",
      "type": "function"
    },
    {
      "inputs": [
        {
          "internalType": "address",
          "name": "from",
          "type": "address"
        },
        {
          "internalType": "address",
          "name": "to",
          "type": "address"
        },
        {
          "internalType": "uint256",
          "name": "tokenId",
          "type": "uint256"
        }
      ],
      "name": "safeTransferFrom",
      "outputs": [],
      "stateMutability": "nonpayable",
      "type": "function"
    },
    {
      "inputs": [
        {
          "internalType": "address",
          "name": "from",
          "type": "address"
        },
        {
          "internalType": "address",
          "name": "to",
          "type": "address"
        },
        {
          "internalType": "uint256",
          "name": "tokenId",
          "type": "uint256"
        },
        {
          "internalType": "bytes",
          "name": "data",
          "type": "bytes"
        }
      ],
      "name": "safeTransferFrom",
      "outputs": [],
      "stateMutability": "nonpayable",
      "type": "function"
    },
    {
      "inputs": [
        {
          "internalType": "address",
          "name": "operator",
          "type": "address"
        },
        {
          "internalType": "bool",
          "name": "approved",
          "type": "bool"
        }
      ],
      "name": "setApprovalForAll",
      "outputs": [],
      "stateMutability": "nonpayable",
      "type": "function"
    },
    {
      "inputs": [
        {
          "internalType": "bytes4",
          "name": "interfaceId",
          "type": "bytes4"
        }
      ],
      "name": "supportsInterface",
      "outputs": [
        {
          "internalType": "bool",
          "name": "",
          "type": "bool"
        }
      ],
      "stateMutability": "view",
      "type": "function"
    },
    {
      "inputs": [],
      "name": "symbol",
      "outputs": [
        {
          "internalType": "string",
          "name": "",
          "type": "string"
        }
      ],
      "stateMutability": "view",
      "type": "function"
    },
    {
      "inputs": [
        {
          "internalType": "uint256",
          "name": "tokenId",
          "type": "uint256"
        }
      ],
      "name": "tokenURI",
      "outputs": [
        {
          "internalType": "string",
          "name": "",
          "type": "string"
        }
      ],
      "stateMutability": "view",
      "type": "function"
    },
    {
      "inputs": [
        {
          "internalType": "address",
          "name": "from",
          "type": "address"
        },
        {
          "internalType": "address",
          "name": "to",
          "type": "address"
        },
        {
          "internalType": "uint256",
          "name": "tokenId",
          "type": "uint256"
        }
      ],
      "name": "transferFrom",
      "outputs": [],
      "stateMutability": "nonpayable",
      "type": "function"
    },
    {
      "inputs": [
        {
          "internalType": "address",
          "name": "newOwner",
          "type": "address"
        }
      ],
      "name": "transferOwnership",
      "outputs": [],
      "stateMutability": "nonpayable",
      "type": "function"
    },
    {
      "inputs": [],
      "name": "pause",
      "outputs": [],
      "stateMutability": "nonpayable",
      "type": "function"
    },
    {
      "inputs": [],
      "name": "unpause",
      "outputs": [],
      "stateMutability": "nonpayable",
      "type": "function"
    },
    {
      "inputs": [
        {
          "internalType": "address",
          "name": "to",
          "type": "address"
        },
        {
          "internalType": "uint256",
          "name": "tokenId",
          "type": "uint256"
        }
      ],
      "name": "safeMint",
      "outputs": [],
      "stateMutability": "nonpayable",
      "type": "function"
    }
  ],
  "bytecode": "0x60806040523480156200001157600080fd5b50604051620031e5380380620031e58339818101604052810190620000379190620003cb565b81818160009080519060200190620000519291906200017e565b5080600190805190602001906200006a9291906200017e565b5050506000600660006101000a81548160ff021916908315150217905550620000a86200009c620000b060201b60201c565b620000b860201b60201c565b5050620004b5565b600033905090565b6000600660019054906101000a900473ffffffffffffffffffffffffffffffffffffffff16905081600660016101000a81548173ffffffffffffffffffffffffffffffffffffffff021916908373ffffffffffffffffffffffffffffffffffffffff1602179055508173ffffffffffffffffffffffffffffffffffffffff168173ffffffffffffffffffffffffffffffffffffffff167f8be0079c531659141344cd1fd0a4f28419497f9722a3daafe3b4186f6b6457e060405160405180910390a35050565b8280546200018c906200047f565b90600052602060002090601f016020900481019282620001b05760008555620001fc565b82601f10620001cb57805160ff1916838001178555620001fc565b82800160010185558215620001fc579182015b82811115620001fb578251825591602001919060010190620001de565b5b5090506200020b91906200020f565b5090565b5b808211156200022a57600081600090555060010162000210565b5090565b6000604051905090565b600080fd5b600080fd5b600080fd5b600080fd5b6000601f19601f8301169050919050565b7f4e487b7100000000000000000000000000000000000000000000000000000000600052604160045260246000fd5b62000297826200024c565b810181811067ffffffffffffffff82111715620002b957620002b86200025d565b5b80604052505050565b6000620002ce6200022e565b9050620002dc82826200028c565b919050565b600067ffffffffffffffff821115620002ff57620002fe6200025d565b5b6200030a826200024c565b9050602081019050919050565b60005b83811015620003375780820151818401526020810190506200031a565b8381111562000347576000848401525b50505050565b6000620003646200035e84620002e1565b620002c2565b90508281526020810184848401111562000383576200038262000247565b5b6200039084828562000317565b509392505050565b600082601f830112620003b057620003af62000242565b5b8151620003c28482602086016200034d565b91505092915050565b60008060408385031215620003e557620003e462000238565b5b600083015167ffffffffffffffff8111156200040657620004056200023d565b5b620004148582860162000398565b925050602083015167ffffffffffffffff8111156200043857620004376200023d565b5b620004468582860162000398565b9150509250929050565b7f4e487b7100000000000000000000000000000000000000000000000000000000600052602260045260246000fd5b600060028204905060018216806200049857607f821691505b60208210811415620004af57620004ae62000450565b5b50919050565b612d2080620004c56000396000f3fe608060405234801561001057600080fd5b506004361061012c5760003560e01c8063715018a6116100ad578063a22cb46511610071578063a22cb465146102f7578063b88d4fde14610313578063c87b56dd1461032f578063e985e9c51461035f578063f2fde38b1461038f5761012c565b8063715018a61461028b5780638456cb59146102955780638da5cb5b1461029f57806395d89b41146102bd578063a1448194146102db5761012c565b80633f4ba83a116100f45780633f4ba83a146101e757806342842e0e146101f15780635c975abb1461020d5780636352211e1461022b57806370a082311461025b5761012c565b806301ffc9a71461013157806306fdde0314610161578063081812fc1461017f578063095ea7b3146101af57806323b872dd146101cb575b600080fd5b61014b60048036038101906101469190611d83565b6103ab565b6040516101589190611dcb565b60405180910390f35b61016961048d565b6040516101769190611e7f565b60405180910390f35b61019960048036038101906101949190611ed7565b61051f565b6040516101a69190611f45565b60405180910390f35b6101c960048036038101906101c49190611f8c565b610565565b005b6101e560048036038101906101e09190611fcc565b61067d565b005b6101ef6106dd565b005b61020b60048036038101906102069190611fcc565b6106ef565b005b61021561070f565b6040516102229190611dcb565b60405180910390f35b61024560048036038101906102409190611ed7565b610726565b6040516102529190611f45565b60405180910390f35b6102756004803603810190610270919061201f565b6107ad565b604051610282919061205b565b60405180910390f35b610293610865565b005b61029d610879565b005b6102a761088b565b6040516102b49190611f45565b60405180910390f35b6102c56108b5565b6040516102d29190611e7f565b60405180910390f35b6102f560048036038101906102f09190611f8c565b610947565b005b610311600480360381019061030c91906120a2565b61095d565b005b61032d60048036038101906103289190612217565b610973565b005b61034960048036038101906103449190611ed7565b6109d5565b6040516103569190611e7f565b60405180910390f35b6103796004803603810190610374919061229a565b610a3d565b6040516103869190611dcb565b60405180910390f35b6103a960048036038101906103a4919061201f565b610ad1565b005b60007f80ac58cd000000000000000000000000000000000000000000000000000000007bffffffffffffffffffffffffffffffffffffffffffffffffffffffff1916827bffffffffffffffffffffffffffffffffffffffffffffffffffffffff1916148061047657507f5b5e139f000000000000000000000000000000000000000000000000000000007bffffffffffffffffffffffffffffffffffffffffffffffffffffffff1916827bffffffffffffffffffffffffffffffffffffffffffffffffffffffff1916145b80610486575061048582610b55565b5b9050919050565b60606000805461049c90612309565b80601f01602080910402602001604051908101604052809291908181526020018280546104c890612309565b80156105155780601f106104ea57610100808354040283529160200191610515565b820191906000526020600020905b8154815290600101906020018083116104f857829003601f168201915b5050505050905090565b600061052a82610bbf565b6004600083815260200190815260200160002060009054906101000a900473ffffffffffffffffffffffffffffffffffffffff169050919050565b600061057082610726565b90508073ffffffffffffffffffffffffffffffffffffffff168373ffffffffffffffffffffffffffffffffffffffff1614156105e1576040517f08c379a00000000000000000000000000000000000000000000000000000000081526004016105d8906123ad565b60405180910390fd5b8073ffffffffffffffffffffffffffffffffffffffff16610600610c0a565b73ffffffffffffffffffffffffffffffffffffffff16148061062f575061062e81610629610c0a565b610a3d565b5b61066e576040517f08c379a00000000000000000000000000000000000000000000000000000000081526004016106659061243f565b60405180910390fd5b6106788383610c12565b505050565b61068e610688610c0a565b82610ccb565b6106cd576040517f08c379a00000000000000000000000000000000000000000000000000000000081526004016106c4906124d1565b60405180910390fd5b6106d8838383610d60565b505050565b6106e561105a565b6106ed6110d8565b565b61070a83838360405180602001604052806000815250610973565b505050565b6000600660009054906101000a900460ff16905090565b6000806107328361113b565b9050600073ffffffffffffffffffffffffffffffffffffffff168173ffffffffffffffffffffffffffffffffffffffff1614156107a4576040517f08c379a000000000000000000000000000000000000000000000000000000000815260040161079b9061253d565b60405180910390fd5b80915050919050565b60008073ffffffffffffffffffffffffffffffffffffffff168273ffffffffffffffffffffffffffffffffffffffff16141561081e576040517f08c379a0000000000000000000000000000000000000000000000000000000008152600401610815906125cf565b60405180910390fd5b600360008373ffffffffffffffffffffffffffffffffffffffff1673ffffffffffffffffffffffffffffffffffffffff168152602001908152602001600020549050919050565b61086d61105a565b6108776000611178565b565b61088161105a565b61088961123e565b565b6000600660019054906101000a900473ffffffffffffffffffffffffffffffffffffffff16905090565b6060600180546108c490612309565b80601f01602080910402602001604051908101604052809291908181526020018280546108f090612309565b801561093d5780601f106109125761010080835404028352916020019161093d565b820191906000526020600020905b81548152906001019060200180831161092057829003601f168201915b5050505050905090565b61094f61105a565b61095982826112a1565b5050565b61096f610968610c0a565b83836112bf565b5050565b61098461097e610c0a565b83610ccb565b6109c3576040517f08c379a00000000000000000000000000000000000000000000000000000000081526004016109ba906124d1565b60405180910390fd5b6109cf8484848461142c565b50505050565b60606109e082610bbf565b60006109ea611488565b90506000815111610a0a5760405180602001604052806000815250610a35565b80610a148461149f565b604051602001610a2592919061262b565b6040516020818303038152906040525b915050919050565b6000600560008473ffffffffffffffffffffffffffffffffffffffff1673ffffffffffffffffffffffffffffffffffffffff16815260200190815260200160002060008373ffffffffffffffffffffffffffffffffffffffff1673ffffffffffffffffffffffffffffffffffffffff16815260200190815260200160002060009054906101000a900460ff16905092915050565b610ad961105a565b600073ffffffffffffffffffffffffffffffffffffffff168173ffffffffffffffffffffffffffffffffffffffff161415610b49576040517f08c379a0000000000000000000000000000000000000000000000000000000008152600401610b40906126c1565b60405180910390fd5b610b5281611178565b50565b60007f01ffc9a7000000000000000000000000000000000000000000000000000000007bffffffffffffffffffffffffffffffffffffffffffffffffffffffff1916827bffffffffffffffffffffffffffffffffffffffffffffffffffffffff1916149050919050565b610bc881611577565b610c07576040517f08c379a0000000000000000000000000000000000000000000000000000000008152600401610bfe9061253d565b60405180910390fd5b50565b600033905090565b816004600083815260200190815260200160002060006101000a81548173ffffffffffffffffffffffffffffffffffffffff021916908373ffffffffffffffffffffffffffffffffffffffff160217905550808273ffffffffffffffffffffffffffffffffffffffff16610c8583610726565b73ffffffffffffffffffffffffffffffffffffffff167f8c5be1e5ebec7d5bd14f71427d1e84f3dd0314c0f7b2291e5b200ac8c7c3b92560405160405180910390a45050565b600080610cd783610726565b90508073ffffffffffffffffffffffffffffffffffffffff168473ffffffffffffffffffffffffffffffffffffffff161480610d195750610d188185610a3d565b5b80610d5757508373ffffffffffffffffffffffffffffffffffffffff16610d3f8461051f565b73ffffffffffffffffffffffffffffffffffffffff16145b91505092915050565b8273ffffffffffffffffffffffffffffffffffffffff16610d8082610726565b73ffffffffffffffffffffffffffffffffffffffff1614610dd6576040517f08c379a0000000000000000000000000000000000000000000000000000000008152600401610dcd90612753565b60405180910390fd5b600073ffffffffffffffffffffffffffffffffffffffff168273ffffffffffffffffffffffffffffffffffffffff161415610e46576040517f08c379a0000000000000000000000000000000000000000000000000000000008152600401610e3d906127e5565b60405180910390fd5b610e5383838360016115b8565b8273ffffffffffffffffffffffffffffffffffffffff16610e7382610726565b73ffffffffffffffffffffffffffffffffffffffff1614610ec9576040517f08c379a0000000000000000000000000000000000000000000000000000000008152600401610ec090612753565b60405180910390fd5b6004600082815260200190815260200160002060006101000a81549073ffffffffffffffffffffffffffffffffffffffff02191690556001600360008573ffffffffffffffffffffffffffffffffffffffff1673ffffffffffffffffffffffffffffffffffffffff168152602001908152602001600020600082825403925050819055506001600360008473ffffffffffffffffffffffffffffffffffffffff1673ffffffffffffffffffffffffffffffffffffffff16815260200190815260200160002060008282540192505081905550816002600083815260200190815260200160002060006101000a81548173ffffffffffffffffffffffffffffffffffffffff021916908373ffffffffffffffffffffffffffffffffffffffff160217905550808273ffffffffffffffffffffffffffffffffffffffff168473ffffffffffffffffffffffffffffffffffffffff167fddf252ad1be2c89b69c2b068fc378daa952ba7f163c4a11628f55a4df523b3ef60405160405180910390a461105583838360016115d2565b505050565b611062610c0a565b73ffffffffffffffffffffffffffffffffffffffff1661108061088b565b73ffffffffffffffffffffffffffffffffffffffff16146110d6576040517f08c379a00000000000000000000000000000000000000000000000000000000081526004016110cd90612851565b60405180910390fd5b565b6110e06115d8565b6000600660006101000a81548160ff0219169083151502179055507f5db9ee0a495bf2e6ff9c91a7834c1ba4fdd244a5e8aa4e537bd38aeae4b073aa611124610c0a565b6040516111319190611f45565b60405180910390a1565b60006002600083815260200190815260200160002060009054906101000a900473ffffffffffffffffffffffffffffffffffffffff169050919050565b6000600660019054906101000a900473ffffffffffffffffffffffffffffffffffffffff16905081600660016101000a81548173ffffffffffffffffffffffffffffffffffffffff021916908373ffffffffffffffffffffffffffffffffffffffff1602179055508173ffffffffffffffffffffffffffffffffffffffff168173ffffffffffffffffffffffffffffffffffffffff167f8be0079c531659141344cd1fd0a4f28419497f9722a3daafe3b4186f6b6457e060405160405180910390a35050565b611246611621565b6001600660006101000a81548160ff0219169083151502179055507f62e78cea01bee320cd4e420270b5ea74000d11b0c9f74754ebdbfc544b05a25861128a610c0a565b6040516112979190611f45565b60405180910390a1565b6112bb82826040518060200160405280600081525061166b565b5050565b8173ffffffffffffffffffffffffffffffffffffffff168373ffffffffffffffffffffffffffffffffffffffff16141561132e576040517f08c379a0000000000000000000000000000000000000000000000000000000008152600401611325906128bd565b60405180910390fd5b80600560008573ffffffffffffffffffffffffffffffffffffffff1673ffffffffffffffffffffffffffffffffffffffff16815260200190815260200160002060008473ffffffffffffffffffffffffffffffffffffffff1673ffffffffffffffffffffffffffffffffffffffff16815260200190815260200160002060006101000a81548160ff0219169083151502179055508173ffffffffffffffffffffffffffffffffffffffff168373ffffffffffffffffffffffffffffffffffffffff167f17307eab39ab6107e8899845ad3d59bd9653f200f220920489ca2b5937696c318360405161141f9190611dcb565b60405180910390a3505050565b611437848484610d60565b611443848484846116c6565b611482576040517f08c379a00000000000000000000000000000000000000000000000000000000081526004016114799061294f565b60405180910390fd5b50505050565b606060405180602001604052806000815250905090565b6060600060016114ae8461185d565b01905060008167ffffffffffffffff8111156114cd576114cc6120ec565b5b6040519080825280601f01601f1916602001820160405280156114ff5781602001600182028036833780820191505090505b509050600082602001820190505b60011561156c578080600190039150507f3031323334353637383961626364656600000000000000000000000000000000600a86061a8153600a85816115565761155561296f565b5b04945060008514156115675761156c565b61150d565b819350505050919050565b60008073ffffffffffffffffffffffffffffffffffffffff166115998361113b565b73ffffffffffffffffffffffffffffffffffffffff1614159050919050565b6115c0611621565b6115cc848484846119b0565b50505050565b50505050565b6115e061070f565b61161f576040517f08c379a0000000000000000000000000000000000000000000000000000000008152600401611616906129ea565b60405180910390fd5b565b61162961070f565b15611669576040517f08c379a000000000000000000000000000000000000000000000000000000000815260040161166090612a56565b60405180910390fd5b565b6116758383611ad6565b61168260008484846116c6565b6116c1576040517f08c379a00000000000000000000000000000000000000000000000000000000081526004016116b89061294f565b60405180910390fd5b505050565b60006116e78473ffffffffffffffffffffffffffffffffffffffff16611cf4565b15611850578373ffffffffffffffffffffffffffffffffffffffff1663150b7a02611710610c0a565b8786866040518563ffffffff1660e01b81526004016117329493929190612acb565b602060405180830381600087803b15801561174c57600080fd5b505af192505050801561177d57506040513d601f19601f8201168201806040525081019061177a9190612b2c565b60015b611800573d80600081146117ad576040519150601f19603f3d011682016040523d82523d6000602084013e6117b2565b606091505b506000815114156117f8576040517f08c379a00000000000000000000000000000000000000000000000000000000081526004016117ef9061294f565b60405180910390fd5b805181602001fd5b63150b7a0260e01b7bffffffffffffffffffffffffffffffffffffffffffffffffffffffff1916817bffffffffffffffffffffffffffffffffffffffffffffffffffffffff191614915050611855565b600190505b949350505050565b600080600090507a184f03e93ff9f4daa797ed6e38ed64bf6a1f01000000000000000083106118bb577a184f03e93ff9f4daa797ed6e38ed64bf6a1f01000000000000000083816118b1576118b061296f565b5b0492506040810190505b6d04ee2d6d415b85acef810000000083106118f8576d04ee2d6d415b85acef810000000083816118ee576118ed61296f565b5b0492506020810190505b662386f26fc10000831061192757662386f26fc10000838161191d5761191c61296f565b5b0492506010810190505b6305f5e1008310611950576305f5e10083816119465761194561296f565b5b0492506008810190505b612710831061197557612710838161196b5761196a61296f565b5b0492506004810190505b60648310611998576064838161198e5761198d61296f565b5b0492506002810190505b600a83106119a7576001810190505b80915050919050565b6001811115611ad057600073ffffffffffffffffffffffffffffffffffffffff168473ffffffffffffffffffffffffffffffffffffffff1614611a445780600360008673ffffffffffffffffffffffffffffffffffffffff1673ffffffffffffffffffffffffffffffffffffffff1681526020019081526020016000206000828254611a3c9190612b88565b925050819055505b600073ffffffffffffffffffffffffffffffffffffffff168373ffffffffffffffffffffffffffffffffffffffff1614611acf5780600360008573ffffffffffffffffffffffffffffffffffffffff1673ffffffffffffffffffffffffffffffffffffffff1681526020019081526020016000206000828254611ac79190612bbc565b925050819055505b5b50505050565b600073ffffffffffffffffffffffffffffffffffffffff168273ffffffffffffffffffffffffffffffffffffffff161415611b46576040517f08c379a0000000000000000000000000000000000000000000000000000000008152600401611b3d90612c5e565b60405180910390fd5b611b4f81611577565b15611b8f576040517f08c379a0000000000000000000000000000000000000000000000000000000008152600401611b8690612cca565b60405180910390fd5b611b9d6000838360016115b8565b611ba681611577565b15611be6576040517f08c379a0000000000000000000000000000000000000000000000000000000008152600401611bdd90612cca565b60405180910390fd5b6001600360008473ffffffffffffffffffffffffffffffffffffffff1673ffffffffffffffffffffffffffffffffffffffff16815260200190815260200160002060008282540192505081905550816002600083815260200190815260200160002060006101000a81548173ffffffffffffffffffffffffffffffffffffffff021916908373ffffffffffffffffffffffffffffffffffffffff160217905550808273ffffffffffffffffffffffffffffffffffffffff16600073ffffffffffffffffffffffffffffffffffffffff167fddf252ad1be2c89b69c2b068fc378daa952ba7f163c4a11628f55a4df523b3ef60405160405180910390a4611cf06000838360016115d2565b5050565b6000808273ffffffffffffffffffffffffffffffffffffffff163b119050919050565b6000604051905090565b600080fd5b600080fd5b60007fffffffff0000000000000000000000000000000000000000000000000000000082169050919050565b611d6081611d2b565b8114611d6b57600080fd5b50565b600081359050611d7d81611d57565b92915050565b600060208284031215611d9957611d98611d21565b5b6000611da784828501611d6e565b91505092915050565b60008115159050919050565b611dc581611db0565b82525050565b6000602082019050611de06000830184611dbc565b92915050565b600081519050919050565b600082825260208201905092915050565b60005b83811015611e20578082015181840152602081019050611e05565b83811115611e2f576000848401525b50505050565b6000601f19601f8301169050919050565b6000611e5182611de6565b611e5b8185611df1565b9350611e6b818560208601611e02565b611e7481611e35565b840191505092915050565b60006020820190508181036000830152611e998184611e46565b905092915050565b6000819050919050565b611eb481611ea1565b8114611ebf57600080fd5b50565b600081359050611ed181611eab565b92915050565b600060208284031215611eed57611eec611d21565b5b6000611efb84828501611ec2565b91505092915050565b600073ffffffffffffffffffffffffffffffffffffffff82169050919050565b6000611f2f82611f04565b9050919050565b611f3f81611f24565b82525050565b6000602082019050611f5a6000830184611f36565b92915050565b611f6981611f24565b8114611f7457600080fd5b50565b600081359050611f8681611f60565b92915050565b60008060408385031215611fa357611fa2611d21565b5b6000611fb185828601611f77565b9250506020611fc285828601611ec2565b9150509250929050565b600080600060608486031215611fe557611fe4611d21565b5b6000611ff386828701611f77565b935050602061200486828701611f77565b925050604061201586828701611ec2565b9150509250925092565b60006020828403121561203557612034611d21565b5b600061204384828501611f77565b91505092915050565b61205581611ea1565b82525050565b6000602082019050612070600083018461204c565b92915050565b61207f81611db0565b811461208a57600080fd5b50565b60008135905061209c81612076565b92915050565b600080604083850312156120b9576120b8611d21565b5b60006120c785828601611f77565b92505060206120d88582860161208d565b9150509250929050565b600080fd5b600080fd5b7f4e487b7100000000000000000000000000000000000000000000000000000000600052604160045260246000fd5b61212482611e35565b810181811067ffffffffffffffff82111715612143576121426120ec565b5b80604052505050565b6000612156611d17565b9050612162828261211b565b919050565b600067ffffffffffffffff821115612182576121816120ec565b5b61218b82611e35565b9050602081019050919050565b82818337600083830152505050565b60006121ba6121b584612167565b61214c565b9050828152602081018484840111156121d6576121d56120e7565b5b6121e1848285612198565b509392505050565b600082601f8301126121fe576121fd6120e2565b5b813561220e8482602086016121a7565b91505092915050565b6000806000806080858703121561223157612230611d21565b5b600061223f87828801611f77565b945050602061225087828801611f77565b935050604061226187828801611ec2565b925050606085013567ffffffffffffffff81111561228257612281611d26565b5b61228e878288016121e9565b91505092959194509250565b600080604083850312156122b1576122b0611d21565b5b60006122bf85828601611f77565b92505060206122d085828601611f77565b9150509250929050565b7f4e487b7100000000000000000000000000000000000000000000000000000000600052602260045260246000fd5b6000600282049050600182168061232157607f821691505b60208210811415612335576123346122da565b5b50919050565b7f4552433732313a20617070726f76616c20746f2063757272656e74206f776e6560008201527f7200000000000000000000000000000000000000000000000000000000000000602082015250565b6000612397602183611df1565b91506123a28261233b565b604082019050919050565b600060208201905081810360008301526123c68161238a565b9050919050565b7f4552433732313a20617070726f76652063616c6c6572206973206e6f7420746f60008201527f6b656e206f776e6572206f7220617070726f76656420666f7220616c6c000000602082015250565b6000612429603d83611df1565b9150612434826123cd565b604082019050919050565b600060208201905081810360008301526124588161241c565b9050919050565b7f4552433732313a2063616c6c6572206973206e6f7420746f6b656e206f776e6560008201527f72206f7220617070726f76656400000000000000000000000000000000000000602082015250565b60006124bb602d83611df1565b91506124c68261245f565b604082019050919050565b600060208201905081810360008301526124ea816124ae565b9050919050565b7f4552433732313a20696e76616c696420746f6b656e2049440000000000000000600082015250565b6000612527601883611df1565b9150612532826124f1565b602082019050919050565b600060208201905081810360008301526125568161251a565b9050919050565b7f4552433732313a2061646472657373207a65726f206973206e6f74206120766160008201527f6c6964206f776e65720000000000000000000000000000000000000000000000602082015250565b60006125b9602983611df1565b91506125c48261255d565b604082019050919050565b600060208201905081810360008301526125e8816125ac565b9050919050565b600081905092915050565b600061260582611de6565b61260f81856125ef565b935061261f818560208601611e02565b80840191505092915050565b600061263782856125fa565b915061264382846125fa565b91508190509392505050565b7f4f776e61626c653a206e6577206f776e657220697320746865207a65726f206160008201527f6464726573730000000000000000000000000000000000000000000000000000602082015250565b60006126ab602683611df1565b91506126b68261264f565b604082019050919050565b600060208201905081810360008301526126da8161269e565b9050919050565b7f4552433732313a207472616e736665722066726f6d20696e636f72726563742060008201527f6f776e6572000000000000000000000000000000000000000000000000000000602082015250565b600061273d602583611df1565b9150612748826126e1565b604082019050919050565b6000602082019050818103600083015261276c81612730565b9050919050565b7f4552433732313a207472616e7366657220746f20746865207a65726f2061646460008201527f7265737300000000000000000000000000000000000000000000000000000000602082015250565b60006127cf602483611df1565b91506127da82612773565b604082019050919050565b600060208201905081810360008301526127fe816127c2565b9050919050565b7f4f776e61626c653a2063616c6c6572206973206e6f7420746865206f776e6572600082015250565b600061283b602083611df1565b915061284682612805565b602082019050919050565b6000602082019050818103600083015261286a8161282e565b9050919050565b7f4552433732313a20617070726f766520746f2063616c6c657200000000000000600082015250565b60006128a7601983611df1565b91506128b282612871565b602082019050919050565b600060208201905081810360008301526128d68161289a565b9050919050565b7f4552433732313a207472616e7366657220746f206e6f6e20455243373231526560008201527f63656976657220696d706c656d656e7465720000000000000000000000000000602082015250565b6000612939603283611df1565b9150612944826128dd565b604082019050919050565b600060208201905081810360008301526129688161292c565b9050919050565b7f4e487b7100000000000000000000000000000000000000000000000000000000600052601260045260246000fd5b7f5061757361626c653a206e6f7420706175736564000000000000000000000000600082015250565b60006129d4601483611df1565b91506129df8261299e565b602082019050919050565b60006020820190508181036000830152612a03816129c7565b9050919050565b7f5061757361626c653a2070617573656400000000000000000000000000000000600082015250565b6000612a40601083611df1565b9150612a4b82612a0a565b602082019050919050565b60006020820190508181036000830152612a6f81612a33565b9050919050565b600081519050919050565b600082825260208201905092915050565b6000612a9d82612a76565b612aa78185612a81565b9350612ab7818560208601611e02565b612ac081611e35565b840191505092915050565b6000608082019050612ae06000830187611f36565b612aed6020830186611f36565b612afa604083018561204c565b8181036060830152612b0c8184612a92565b905095945050505050565b600081519050612b2681611d57565b92915050565b600060208284031215612b4257612b41611d21565b5b6000612b5084828501612b17565b91505092915050565b7f4e487b7100000000000000000000000000000000000000000000000000000000600052601160045260246000fd5b6000612b9382611ea1565b9150612b9e83611ea1565b925082821015612bb157612bb0612b59565b5b828203905092915050565b6000612bc782611ea1565b9150612bd283611ea1565b9250827fffffffffffffffffffffffffffffffffffffffffffffffffffffffffffffffff03821115612c0757612c06612b59565b5b828201905092915050565b7f4552433732313a206d696e7420746f20746865207a65726f2061646472657373600082015250565b6000612c48602083611df1565b9150612c5382612c12565b602082019050919050565b60006020820190508181036000830152612c7781612c3b565b9050919050565b7f4552433732313a20746f6b656e20616c7265616479206d696e74656400000000600082015250565b6000612cb4601c83611df1565b9150612cbf82612c7e565b602082019050919050565b60006020820190508181036000830152612ce381612ca7565b905091905056fea264697066735822122010f37bf67831da887967c5d451ad93e0cbc11309058cbec99a000ff94b49489364736f6c63430008090033",
  "immutableReferences": {},
  "source": "// SPDX-License-Identifier: MIT\npragma solidity ^0.8.9;\n\nimport \"@openzeppelin/contracts/token/ERC721/ERC721.sol\";\nimport \"@openzeppelin/contracts/security/Pausable.sol\";\nimport \"@openzeppelin/contracts/access/Ownable.sol\";\n\ncontract NFT is ERC721, Pausable, Ownable {\n    constructor(string memory name, string memory symbol) ERC721(name, symbol) {}\n\n    function pause() public onlyOwner {\n        _pause();\n    }\n\n    function unpause() public onlyOwner {\n        _unpause();\n    }\n\n    function safeMint(address to, uint256 tokenId) public onlyOwner {\n        _safeMint(to, tokenId);\n    }\n\n    function _beforeTokenTransfer(address from, address to, uint256 tokenId, uint256 batchSize)\n    internal\n    whenNotPaused\n    override\n    {\n        super._beforeTokenTransfer(from, to, tokenId, batchSize);\n    }\n}\n",
  "sourcePath": "/Users/mohaijiang/IdeaProjects/blockchain/NFT/contracts/NFT.sol",
  "compiler": {
    "name": "solc",
    "version": "0.8.9+commit.e5eed63a.Emscripten.clang"
  },
  "schemaVersion": "3.4.11",
  "updatedAt": "2023-02-06T03:58:43.342Z",
  "devdoc": {
    "kind": "dev",
    "methods": {
      "approve(address,uint256)": {
        "details": "See {IERC721-approve}."
      },
      "balanceOf(address)": {
        "details": "See {IERC721-balanceOf}."
      },
      "getApproved(uint256)": {
        "details": "See {IERC721-getApproved}."
      },
      "isApprovedForAll(address,address)": {
        "details": "See {IERC721-isApprovedForAll}."
      },
      "name()": {
        "details": "See {IERC721Metadata-name}."
      },
      "owner()": {
        "details": "Returns the address of the current owner."
      },
      "ownerOf(uint256)": {
        "details": "See {IERC721-ownerOf}."
      },
      "paused()": {
        "details": "Returns true if the contract is paused, and false otherwise."
      },
      "renounceOwnership()": {
        "details": "Leaves the contract without owner. It will not be possible to call `onlyOwner` functions anymore. Can only be called by the current owner. NOTE: Renouncing ownership will leave the contract without an owner, thereby removing any functionality that is only available to the owner."
      },
      "safeTransferFrom(address,address,uint256)": {
        "details": "See {IERC721-safeTransferFrom}."
      },
      "safeTransferFrom(address,address,uint256,bytes)": {
        "details": "See {IERC721-safeTransferFrom}."
      },
      "setApprovalForAll(address,bool)": {
        "details": "See {IERC721-setApprovalForAll}."
      },
      "supportsInterface(bytes4)": {
        "details": "See {IERC165-supportsInterface}."
      },
      "symbol()": {
        "details": "See {IERC721Metadata-symbol}."
      },
      "tokenURI(uint256)": {
        "details": "See {IERC721Metadata-tokenURI}."
      },
      "transferFrom(address,address,uint256)": {
        "details": "See {IERC721-transferFrom}."
      },
      "transferOwnership(address)": {
        "details": "Transfers ownership of the contract to a new account (`newOwner`). Can only be called by the current owner."
      }
    },
    "version": 1
  },
  "userdoc": {
    "kind": "user",
    "methods": {},
    "version": 1
  }
}